:1000000000000220B1850000DD850000DD850000D4
:10001000DD850000DD850000DD850000DD85000058
:10002000DD850000DD850000DD850000DD85000048
:10003000DD850000DD850000DD850000DD85000038
:10004000ED12000065260000855B0000DD850000E4
:10005000DD85000009540000DD850000DD8500001D
:10006000DD850000DD850000DD85000089260000BB
:10007000C96D00000D6E0000DD850000DD8500000B
:10008000DD850000DD850000DD850000DD850000E8
:10009000DD850000DD850000DD850000DD850000D8
:1000A000DD850000DD850000DD850000DD850000C8
:1000B000DD850000DD850000DD850000DD850000B8
:1000C000DD850000DD850000DD850000DD850000A8
:1000D000DD850000DD850000DD85000010B5054CE4
:1000E000237833B9044B13B10448AFF300800123E4
:1000F000237010BDD00900200000000020EE000099
:10010000084B10B51BB108480849AFF300800848F8
:10011000036803B910BD074B002BFBD0BDE81040AE
:10012000184700BF0000000020EE0000D4090020A6
:10013000CC09002000000000154B002B08BF134B1A
:100140009D46A3F5803A00218B460F461348144A7A
:10015000121A00F063F80F4B002B00D098470E4B9B
:10016000002B00D098470020002104000D000D480E
:10017000002802D00C4800F013F900F027F8200006
:10018000290006F04BFE00F011F800BF0000080047
:10019000000002200000000000000000D009002044
:1001A000640D0020A1030000AD03000008B500218C
:1001B000044600F08BF8044B1868C36B03B19847F2
:1001C000204600F05BF900BF10E0000070B50F4E54
:1001D0000F4D761BB61018BF002405D0013455F81A
:1001E000043B9847A642F9D10A4E0B4D0DF002FF91
:1001F000761BB61018BF002406D0013455F8043B16
:100200009847A642F9D170BD70BD00BFC00900205B
:10021000C0090020C8090020C009002070B484076C
:1002200046D0541E002A41D0CDB2034602E0621EE1
:10023000E4B3144603F8015B9A07F8D1032C2ED9D6
:10024000CDB245EA05250F2C45EA054519D92646C4
:1002500003F11002103E0F2E42F8105C42F80C5CC5
:1002600042F8085C42F8045C02F11002F2D8A4F1F2
:10027000100222F00F0204F00F041032032C13447A
:100280000DD91E462246043A032A46F8045BFAD8E2
:10029000221F22F003020432134404F003042CB1A1
:1002A000C9B21C4403F8011BA342FBD170BC7047C8
:1002B00014460346C2E700BF024B13B1024800F0E8
:1002C0006FB8704700000000AD0300002DE9F04F4B
:1002D00081460E46304B83B01B68009303F5A47330
:1002E0000193009BD3F8487127B3DDF804A07C6824
:1002F000651E0ED4013407EB84044FF00008E6B10C
:10030000D4F80031B34218D0013D6B1CA4F10404B1
:10031000F5D1224B73B17B68002B36D13B68002BA3
:1003200034D03846CAF8003008F0B8FEDAF8007069
:10033000002FDCD103B0BDE8F08F7B682268013B61
:10034000AB420CBF7D60C4F80080002ADCD0D7F837
:1003500088310121A9401942D7F804B008D190474B
:100360007B685B45BDD1DAF80030BB42CCD0B8E742
:10037000D7F88C31194204D14846D4F88010904700
:10038000EEE7D4F880009047EAE73B68BA461F469C
:10039000002FACD1CEE700BF10E000009D90000020
:1003A000014600200246034600F016B838B5084B57
:1003B000084DED1AAC1018BFED1805D0013C55F8EA
:1003C000043D9847002CF9D1BDE838400DF018BE27
:1003D000C8090020CC0900202DE9F047254C06462D
:1003E00025688846D5F8484192469946C4B3606866
:1003F0001F2817DC411C76B104EB8003C3F888A0EA
:10040000D4F88851012282401543022EC4F8885145
:10041000C3F808911ED0831C6160002044F823803B
:10042000BDE8F087144B03B34FF4C87008F02EFEFC
:100430000446D0B1D5F84831002784E88800384612
:10044000C5F848410121C4F88871C4F88C71002EA8
:10045000E1D0D1E7D4F88C311A43C4F88C21DAE723
:1004600005F5A674C5F84841C1E74FF0FF30BDE877
:10047000F08700BF10E000008D900000FEE700BF95
:10048000024BDB6C1B0EDBB218467047B081E00FED
:1004900000B583B000F026F801900D4B1B6803F403
:1004A000E0339B0B0133019AB2FBF3F30193084B4A
:1004B0005B6803F00F031A46019BD3400193054A82
:1004C000019B1360019B184603B05DF804FB00BF5D
:1004D00000800C40180C0020014B1846704700BFEC
:1004E000006CDC0200B583B02F4BDB6A03F4705361
:1004F000B3F5805F0AD0B3F5005F03D0B3F5006FAA
:1005000008D00BE0294B1B68019347E04FF40043F0
:10051000019343E0264B1B6801933FE0224BDB68CD
:1005200003F4E063B3F5007F1BD0B3F5007F05D87B
:10053000002B24D0B3F5807F16D02BE0B3F5806F6D
:1005400009D0B3F5A06F03D0B3F5407F06D021E00A
:10055000184B019321E0184B01931EE0174B0193B8
:100560001BE0174B019318E0FFF78AFF0346122B9D
:1005700002D9144B019310E0134B01930DE0FFF7E8
:100580007FFF0346122B02D9104B019305E0104B5D
:10059000019302E00023019300BF00BF019B1846B6
:1005A00003B05DF804FB00BF00800C403004002065
:1005B0002C040020003FAB01406F4001809FD5001C
:1005C000C0D8A70040B56400C0CF6A00804F1200B9
:1005D00040420F00014B1B68184670472C04002056
:1005E000704700BF4FF40043184670474FF47A73CA
:1005F00018467047014B1B681846704730040020AE
:1006000086B0039002910192039B03F10473DA0018
:10061000029B13449B000593059B019A1A6006B048
:10062000704700BF84B001900091019B03F10473F7
:10063000DA00009B13449B000393039B1B6818463E
:1006400004B0704700B587B00190019B002B03D028
:10065000019BB3F5004F04D90A4840F29B4103F0D7
:1006600067FE019B0493049BB3FA83F30393039BFC
:10067000DBB2C3F11F030593059B184607B05DF875
:1006800004FB00BF14E00000034BDB6C03F47F03AA
:100690001B0CDBB218467047B081E00F00B583B089
:1006A0001B4B5B6903F4E063B3F5007F14D0B3F533
:1006B000007F05D8002B15D0B3F5807F0FD01AE04E
:1006C000B3F5C06F14D0B3F5E06F0ED0B3F5407F33
:1006D00011D1104B019315E00F4B019312E00F4B1A
:1006E00001930FE00E4B01930CE00E4B019309E0D8
:1006F0000D4B019306E00D48942103F019FE0023F1
:10070000019300BF019B184603B05DF804FB00BFD6
:1007100000800C4040420F00C0CF6A00C0D8A70044
:10072000809FD500406F4001003FAB0130E00000EA
:1007300000B583B0144800F029FB03468DF8033060
:100740009DF80330072B0FD0082B11D1FFF7CAFEFD
:1007500001900E4B1B6803F4E0339B0B0133019AAD
:10076000B2FBF3F301930AE0FFF798FF019006E074
:100770000748C22103F0DCFD0023019300BF019B69
:10078000184603B05DF804FB06000C0000800C4026
:1007900030E0000084B001902A4BDB6B002B14BFCB
:1007A000012300238DF80A30264B41F67132DA63BB
:1007B000244B5B6803F007030393039B012B01D9D0
:1007C000042B03D100238DF80B3003E001238DF8B7
:1007D0000B3000BF019B1C4A934208D99DF80B3097
:1007E000002B01D0052300E00423039318E0019BB4
:1007F000154A93420CD8019B144A934208D99DF89C
:100800000B30002B01D0032300E00123039307E00A
:100810009DF80B30002B01D0022300E0002303934E
:100820000849084B5B6823F00702039B13434B60A6
:100830009DF80A30002B02D0024B0022DA6304B08C
:10084000704700BF00000C400048E8010024F4009D
:1008500008B5FFF741FE03461846FFF79BFF08BDAA
:1008600000B585B0019000230293019B424A934258
:1008700008D0424A934205D0414840F24F1103F05C
:1008800057FD00E000BF019800F080FA0346039393
:10089000019B394A934203D0384A934206D00CE078
:1008A000384B9B6A03F0030303930CE0354B9B6AC0
:1008B00003F00C039B08039305E0314840F27911E3
:1008C00003F036FD00BF039B032B47D801A252F86B
:1008D00023F000BF25090000E5080000ED08000036
:1008E000F5080000FFF77EFE02903FE0FFF782FE72
:1008F00002903BE0234B5B6803F48073002B05D12F
:10090000204B1B6803F08043002B05D0FFF7C0FD90
:1009100003469B08029329E0FFF7BAFD03465B08F4
:10092000029323E000230293019B134A934203D0D6
:10093000019B124A934210D1124B9A6A019B0E49B5
:100940008B4201D1102300E0142322FA03F3002B81
:1009500003D0FFF74BFE029008E007E0084840F2A2
:10096000AF1103F0E5FC0023029300BF029B184681
:1009700005B05DF804FB00BF0200180003001A0078
:1009800030E0000000800C4000B583B0FFF77CFE33
:100990000346482B28D04A2B28D1194B1B699BB200
:1009A00003F03F039BB21B02ADF80630144B9B696A
:1009B00003F0F0039AB2BDF806301343ADF80630E9
:1009C0000F4BDB6903F0F0031B099AB2BDF8063048
:1009D0001343ADF80630BDF80630B3F5017F01D3FF
:1009E000084B09E0084B07E0074B05E0074840F2D9
:1009F000012103F09DFC0023184603B05DF804FBC1
:100A0000D0FF0FE000366E010048E80130E0000042
:100A100082B00190074B5B6D03F00103002B00D007
:100A200006E000BF034B1A6D019B1340002BF9D168
:100A300002B0704700800C4000B583B0104800F051
:100A4000A5F903468DF803309DF80330032B07D03A
:100A5000082B09D0022B0BD1FFF7CCFD01900AE047
:100A6000FFF7C0FD019006E0FFF73CFD019002E0BA
:100A70000023019300BF019B184603B05DF804FBFF
:100A80000723200010B586B001900B468DF8033087
:100A900000230493019B1B0A03F00F03013B092B66
:100AA00040D801A252F823F0FF0A0000050B000015
:100AB000D10A0000250B0000250B00000B0B0000E5
:100AC000150B0000250B0000250B00001F0B00007C
:100AD000214B0593214800F053F80446FFF754FFDB
:100AE00003469C420AD91E481E210122FFF788FDB9
:100AF0001C4808210122FFF783FD19E018E01A4B7A
:100B0000059315E0194B059312E0194B059301234A
:100B100004930DE0174B05931023049308E0164B44
:100B2000059305E0154840F2FB5103F001FC11E08C
:100B3000019B1B0B03F01F030393049B002B02D0AC
:100B40000498FFF765FF9DF80330059803991A464E
:100B5000FFF756FD06B010BD40800C40500002006B
:100B600000800C4004800C4008800C4044800C4005
:100B700058800C4060800C4078800C4030E00000D1
:100B800010B584B00190019B03F47813B3F5A01F56
:100B900000F0C080B3F5A01F1AD8B3F5402F00F0C5
:100BA000D480B3F5402F08D8B3F5003F51D0B3F54A
:100BB000802F38D0002B28D0D3E0B3F5801F51D040
:100BC000B3F5901F5CD0B3F5602F00F0C280C8E091
:100BD000B3F5001F00F0C180B3F5001F0BD8B3F5CB
:100BE000C01F3AD0B3F5D01F00F08F80B3F5B01F0F
:100BF00000F09D80B5E0B3F5181F62D0B3F5201F5B
:100C000076D0B3F5101F49D0ABE0FFF76BFC039033
:100C10005A4B1B6803F4E0339B0B0133039AB2FB7E
:100C2000F3F30393A5E0FFF75DFC0390534B1B68C0
:100C300003F4E0339B0B0133039AB2FBF3F303930A
:100C40004E4B9B6803F00F031A46039BD34003935C
:100C50008FE0FFF71DFC03908BE04948FFF700FE93
:100C6000039086E04648FFF7FBFD0390434B9B6EE5
:100C700003F0F0031B091A46039BD340039378E06B
:100C80003F48FFF7EDFD03903C4B9B6E03F4706310
:100C90001B0A1A46039BD34003936AE03848FFF7C8
:100CA000DFFD0390354B9B6E03F440531C0B10206B
:100CB000FFF7C8FC034623441A46039BD340039323
:100CC00057E02F48FFF7CCFD03902C4B9B6E03F4AD
:100CD00040531B0B1A46039BD3400393274BDB6FF8
:100CE00003F007030133039AB2FBF3F3039340E0ED
:100CF0002348FFF7B5FD0390204B9B6E03F00303E1
:100D00001A46039BD340039333E01E48FFF7A8FD28
:100D100003902EE01B48FFF7A3FD0390174B1B6FBA
:100D200003F003031A46039BD340039321E01548C5
:100D3000FFF796FD0390114B1B6F03F030031B0967
:100D40001A46039BD340039313E0FFF7F1FC039093
:100D50000FE0FFF7A3FC03900BE0FFF76DFE03909D
:100D600007E0094840F2D16103F0E2FA002303935F
:100D700000BF039B184604B010BD00BF00800C40AC
:100D80000200180003001A0030E0000000B585B032
:100D9000019001238DF80F30019B03F00F030293A4
:100DA000029B013B062B00F2A88001A252F823F01F
:100DB000CD0D00000B0E00004F0E0000FB0E0000DA
:100DC000FB0E0000930E0000BF0E0000524BDB6ACA
:100DD00003F47053B3F5805F0AD0B3F5005F03D01E
:100DE000B3F5006F08D00BE002238DF80F300BE055
:100DF00003238DF80F3007E004238DF80F3003E054
:100E000005238DF80F3000BF80E0434B9B6A03F051
:100E10000303022B07D0032B09D0012B0BD1032393
:100E20008DF80F3012E002238DF80F300EE006230C
:100E30008DF80F300AE0384B9B6A03F48033002BA7
:100E400003D009238DF80F3000E000BF5EE0324B85
:100E50009B6A03F00C03082B07D00C2B09D0042B42
:100E60000BD103238DF80F3012E002238DF80F30E1
:100E70000EE006238DF80F300AE0274B9B6A03F43F
:100E80008013002B03D009238DF80F3000E000BF42
:100E90003CE007238DF80F301F4B1B6803F0805395
:100EA000002B03D0B3F1805F04D02FE007238DF82F
:100EB0000F3003E008238DF80F3000BF26E0164BFB
:100EC000DB6A03F46033B3F5803F09D0B3F5003F2C
:100ED0000AD0B3F5004F0BD108238DF80F300BE08B
:100EE00002238DF80F3007E003238DF80F3003E065
:100EF00001238DF80F3000BF08E0084840F682114A
:100F000003F016FA00238DF80F3000BF9DF80F3064
:100F1000184605B05DF804FB00800C4030E000008E
:100F200010B588B001900B468DF80330032307936A
:100F300003238DF81B3000230493019B03F00F0360
:100F40000393039B013B062B00F2528101A252F84E
:100F500023F000BF710F00005D1000005D10000065
:100F6000F1110000F1110000451100007D11000099
:100F70009DF80330023B072B55D801A252F823F00D
:100F8000A10F0000AD0F0000B90F00000F1000000E
:100F90002710000027100000271000001B10000081
:100FA0000423079300238DF81B3042E003230793AB
:100FB00001238DF81B303CE002238DF81B30022307
:100FC0000793FFF707FB0446FFF7DEFC03469C424E
:100FD00013D98B4A8A4B1B6843F0804343F060036C
:100FE0001360874B1B6C03F01003002B0ED0854859
:100FF00008210122FFF704FB1BE0814A804B1B689C
:1010000023F0600343F02003136012E011E001239A
:10101000079303238DF81B300BE07B4840F6162125
:1010200003F086F9EAE0784840F61B2103F080F9E6
:10103000E4E09DF81B3018460121012200F0E8F899
:10104000FFF706FC6E4A079B536200F031FFFFF783
:101050001FFA02900298FFF79DFBCFE09DF8033046
:10106000013B082B48D801A252F823F09110000050
:1010700097100000A7100000F9100000F910000000
:10108000B7100000F9100000F9100000EF10000088
:101090000023059336E000200121012200F0B8F87A
:1010A000022305932EE001200121012200F0B0F877
:1010B0000123059326E0554804210122FFF7A0FAF9
:1010C00003230593FFF7E4F90290FFF75DFC024666
:1010D000029B9A420AD24A481E210122FFF790FA47
:1010E000484808210122FFF78BFA0BE00AE00023B1
:1010F00005930123049305E0434840F6A82103F03B
:1011000017F97BE0039B022B0DD13D493C4B9B6AB9
:1011100023F4803323F00303059A1A43049B1B0432
:1011200013438B626AE03649354B9B6A23F4801384
:1011300023F00C03059A92001A43049B1B051343EA
:101140008B625BE09DF80330072B02D0082B07D0A1
:101150000DE02B4A2A4B1B6823F0805313600CE0F0
:10116000274A274B1B6843F08053136005E026484D
:1011700040F6083103F0DCF840E03FE09DF8033032
:10118000032B13D0082B21D0022B2AD100200121C0
:10119000012200F03DF81A4B40225A6200BF184B62
:1011A000DB6A03F48033002BF9D020E00120012119
:1011B000012200F02DF8124B60225A6200BF104B42
:1011C000DB6A03F40033002BF9D010E00C4B202233
:1011D0005A6200BF0A4BDB6A03F40043002BF9D0CC
:1011E00005E0094840F64C3103F0A2F806E005E0BE
:1011F000054840F6533103F09BF800BF08B010BD1E
:1012000000800C4004800C4030E0000040800C4026
:1012100000B587B003468DF807300B468DF80630D1
:1012200013468DF805309DF80730052B33D801A201
:1012300052F823F085120000771200005B120000C4
:101240004D12000069120000D71200000123049320
:10125000022303930123059323E00423049308232B
:101260000393032305931CE010230493202303938B
:101270000523059315E0402304938023039307235C
:1012800005930EE04FF4807304934FF400730393BF
:101290000923059305E0124840F6216103F048F860
:1012A0001AE09DF80630002B0FD00E4A049B136203
:1012B0009DF80530002B0BD000BF0B480599FFF7B8
:1012C000B1F90346002BF8D002E0064A039B1362F3
:1012D00000F0EEFD00E000BF07B05DF804FB00BFCA
:1012E00030E0000000800C402C800C4000B58BB03A
:1012F000354B03F580531B680693334B03F580533E
:101300000C331B68069A13400693069B002B00DAE9
:10131000FEE72D4B9B6B0593069A059B13400893A4
:101320000023079349E0002309933BE0089B03F067
:101330000103002B30D0244B9B6804930122099BAE
:1013400002FA03F30393204B03F580530833039A07
:101350001A60099B1B01049A1344DB680293029BE9
:10136000002B19D0029B1B7A0193029B1B7A83F0FE
:101370000103DAB2029B1A72029B1B68002B0BD08E
:10138000029B1B680998019A002A14BF01220022BF
:10139000D1B2029A52689847089B5B080893099B50
:1013A00001330993089B002BC0D1059BDA43069BB0
:1013B00013400893079B01330793079B012BB2DD72
:1013C0000BB05DF804FB00BF00200C4086B003901A
:1013D00002910192039B03F10473DA00029B134410
:1013E0009B000593059B019A1A6006B0704700BFE9
:1013F00000B585B001908A4B1B680393039B43F0B3
:1014000080430393019BDA68019B5B7810460021BF
:101410001A4600F07DFC019BDA68019B9B78104620
:1014200001211A4600F074FC019BDA68019BDB780D
:10143000104602211A4600F06BFC019BDA68019B02
:101440001B79104603211A4600F062FC019BDA6802
:10145000019B5B79104604211A4600F059FC019B60
:10146000DA68019B9B79104605211A4600F050FC72
:10147000019BDB6803F00203002B2ED0039A694B1B
:1014800013400393019B1B781A46039B134303935A
:10149000019B5B7A1B041A46039B13430393019B36
:1014A0009B7A5B041A46039B13430393019BDB79EE
:1014B0001B061A46039B13430393019B1B7A1B03D2
:1014C0001A46039B13430393019B93F84C30002B64
:1014D00003D0039B43F480730393019BDB6803F009
:1014E0000403002B2FD0039A4F4B13400393019B0F
:1014F0001B789B001A46039B13430393019B5B7A63
:101500009B041A46039B13430393019B9B7ADB04C2
:101510001A46039B13430393019BDB795B061A4630
:10152000039B13430393019B1B7A5B031A46039BA4
:1015300013430393019B93F84C30002B03D0039B80
:1015400043F400730393019BDB6803F00803002B53
:101550002FD0039A354B13400393019B1B781B013B
:101560001A46039B13430393019B5B7A1B051A46A0
:10157000039B13430393019B9B7A5B051A46039BD2
:1015800013430393019BDB799B061A46039B13438A
:101590000393019B1B7A9B031A46039B13430393FC
:1015A000019B93F84C30002B03D0039B43F48063E2
:1015B0000393019BDB6803F01003002B3AD0039ADE
:1015C0001B4B13400393019B1B789B011A46039B03
:1015D00013430393019B5B7A9B051A46039B1343BA
:1015E0000393019B9B7ADB051A46039B13430393EA
:1015F000019BDB79DB061A46039B13430393019B94
:101600001B7ADB031A46039B13430393019B93F856
:101610004C30002B0ED0039B43F40063039309E08E
:1016200000800040FCEEFCFEF3DDF3FDCFBBCFFB02
:101630003F773FF7019BD868019B196A019B5A6A63
:10164000019B9B6A00F05AF9019BD868019B93F8B3
:101650002C10019B93F82D20019B93F82E3000F065
:10166000BFF8019BD868019B196B019B5A6B019BCA
:101670009B6B00F023FA019BD968019B93F83C20F7
:10168000019B93F83D30084611461A4600F0AAF92E
:10169000019BD968019B5A69019B9B6908461146C9
:1016A0001A4600F0CDFA019BDA68019B1B7F1046B9
:1016B000194600F077FA2A4A039B1360019B1B78B6
:1016C000032B17D801A252F823F000BFE91600003F
:1016D000DD160000DD160000E91600002148052196
:1016E0000122FFF773FE05E01E4805210022FFF7E7
:1016F0006DFE00BF1A491A4B5B6923F44032019B0F
:101700001B6C13434B611649154B5B6923F4F802BC
:10171000019B5B6C13434B611149114B5B6923F0D7
:10172000E042019B9B6C13434B61039B03F070638E
:10173000002B06D0019BDB790A4807211A46FFF7E8
:1017400045FE084800210122FFF740FE019B1B696E
:101750001846012100F008F805B05DF804FB00BF51
:10176000008000401480004000B583B001900B461B
:101770008DF80330019B03F00203002B06D09DF887
:101780000330164801211A46FFF720FE019B03F0A3
:101790000403002B06D09DF80330104802211A469E
:1017A000FFF714FE019B03F00803002B06D09DF801
:1017B00003300A4803211A46FFF708FE019B03F095
:1017C0001003002B06D09DF80330044804211A466C
:1017D000FFF7FCFD03B05DF804FB00BF1480004080
:1017E00000B583B00190084611461A4603468DF8AD
:1017F00003300B468DF8023013468DF80130019B03
:1018000023F01E03002B04D0374840F2DE2102F003
:101810008FFD019B03F00203002B14D09DF80330D1
:1018200032481E211A46FFF7D1FD9DF802302F489D
:101830001D211A46FFF7CAFD9DF801302B481C21D7
:101840001A46FFF7C3FD019B03F00403002B14D0DD
:101850009DF8033026481E211A46FFF7B7FD9DF874
:10186000023023481D211A46FFF7B0FD9DF80130D4
:101870001F481C211A46FFF7A9FD019B03F008032E
:10188000002B14D09DF803301A481E211A46FFF78A
:101890009DFD9DF8023017481D211A46FFF796FD61
:1018A0009DF8013013481C211A46FFF78FFD019B5C
:1018B00003F01003002B14D09DF803300E481E21B6
:1018C0001A46FFF783FD9DF802300B481D211A468A
:1018D000FFF77CFD9DF8013007481C211A46FFF7F1
:1018E00075FD03B05DF804FB4CE00000088000408B
:1018F0001C8000402C8000403C80004000B587B038
:101900000390029101920093039B23F01E03002B8E
:1019100004D0324840F2113102F00AFD029B032B41
:1019200004DD2E484FF4457102F002FD019B3F2B70
:1019300004DD2A4840F2153102F0FAFC009B032B2B
:1019400004DD264840F2163102F0F2FC019B1A0237
:10195000029B1A43009B1B0413430593039B03F054
:101960000203002B09D01E491D4B9B6823F0031373
:1019700023F47C53059A13438B60039B03F0040309
:10198000002B09D01649164BDB6923F0031323F40F
:101990007C53059A1343CB61039B03F00803002B90
:1019A00009D00F490E4BDB6A23F0031323F47C5359
:1019B000059A1343CB62039B03F01003002B09D05D
:1019C0000749074BDB6B23F0031323F47C53059A81
:1019D0001343CB6307B05DF804FB00BF4CE000008D
:1019E0000080004000B583B001900B468DF80330B5
:1019F00013468DF80230019B23F01E03002B04D008
:101A000029484FF4547102F093FC019B03F0020348
:101A1000002B0DD09DF8033024481D211A46FFF7F6
:101A2000D5FC9DF8023021481C211A46FFF7CEFC58
:101A3000019B03F00403002B0DD09DF803301C48DC
:101A40001D211A46FFF7C2FC9DF8023018481C21E0
:101A50001A46FFF7BBFC019B03F00803002B0DD0D7
:101A60009DF8033013481D211A46FFF7AFFC9DF87F
:101A7000023010481C211A46FFF7A8FC019B03F016
:101A80001003002B0DD09DF803300B481D211A4682
:101A9000FFF79CFC9DF8023007481C211A46FFF70F
:101AA00095FC03B05DF804FB4CE000000C800040A6
:101AB00020800040308000404080004000B587B06A
:101AC0000390029101920093039B23F01E03002BCD
:101AD00004D0324840F27F3102F02AFC029B032BF3
:101AE00004DD2E4840F2823102F022FC019B3F2BA4
:101AF00004DD2A4840F2833102F01AFC009B032BDC
:101B000004DD26484FF4617102F012FC019B1A02B9
:101B1000029B1A43009B1B0413430593039B03F092
:101B20000203002B09D01E491D4BDB6823F0031371
:101B300023F47C53059A1343CB60039B03F0040307
:101B4000002B09D01649164B1B6A23F0031323F40C
:101B50007C53059A13430B62039B03F00803002B8D
:101B600009D00F490E4B1B6B23F0031323F47C5356
:101B7000059A13430B63039B03F01003002B09D05A
:101B80000749074B1B6C23F0031323F47C53059A7E
:101B900013430B6407B05DF804FB00BF4CE000008A
:101BA0000080004000B583B001900B468DF80330F3
:101BB000019B23F01E03002B04D01C4840F2BB31D4
:101BC00002F0B6FB019B03F00203002B06D09DF848
:101BD000033017481C211A46FFF7F8FB019B03F05E
:101BE0000403002B06D09DF8033012481C211A462E
:101BF000FFF7ECFB019B03F00803002B06D09DF8D8
:101C000003300D481C211A46FFF7E0FB019B03F04F
:101C10001003002B06D09DF8033008481C211A46FB
:101C2000FFF7D4FB03B05DF804FB00BF4CE00000FD
:101C30000480004018800040288000403880004028
:101C400000B587B0039002910192039B23F01E031D
:101C5000002B04D02C4840F2E33102F069FB029BD8
:101C6000032B04DD284840F2E63102F061FB019BC2
:101C7000032B04DD244840F2E73102F059FB019BBD
:101C80001A02029B13430593039B03F00203002BEC
:101C900009D01E491D4B5B6823F4407323F00303F6
:101CA000059A13434B60039B03F00403002B09D0F8
:101CB0001649164B9B6923F4407323F00303059ADE
:101CC00013438B61039B03F00803002B09D00F49DA
:101CD0000E4B9B6A23F4407323F00303059A1343CE
:101CE0008B62039B03F01003002B09D00749074BBD
:101CF0009B6B23F4407323F00303059A13438B6318
:101D000007B05DF804FB00BF4CE00000008000401D
:101D100000B585B001900B468DF8033013468DF861
:101D200002300023039300230293019B23F01E0340
:101D3000002B04D058484FF4846102F0F9FAA4E073
:101D4000019B03F00203002B03D0544B02930223A8
:101D50000393019B03F00403002B03D0504B029329
:101D600004230393019B03F00803002B03D04D4B86
:101D7000029308230393019B03F01003002B03D06D
:101D8000494B0293102303939DF803300A2B71D81B
:101D900001A252F823F000BFC51D0000D51D0000B0
:101DA000E51D0000F51D0000051E0000151E0000C9
:101DB000251E0000351E0000451E0000551E0000B7
:101DC000651E00009DF80230029804211A46FFF7B4
:101DD000FDFA55E09DF80230029803211A46FFF7FC
:101DE000F5FA4DE09DF80230029802211A46FFF7FD
:101DF000EDFA45E09DF80230029801211A46FFF7FE
:101E0000E5FA3DE09DF80230029800211A46FFF7FE
:101E1000DDFA35E09DF80230029805211A46FFF7F9
:101E2000D5FA2DE09DF80230204804211A46FFF72C
:101E3000CDFA25E09DF802301C4803211A46FFF731
:101E4000C5FA1DE09DF80230184802211A46FFF736
:101E5000BDFA15E09DF80230144801211A46FFF73B
:101E6000B5FA0DE09DF80230104800211A46FFF740
:101E7000ADFA05E0084840F2654102F059FA00BFAA
:101E8000039BDB43019A13400193019B002B7FF4DA
:101E900057AF05B05DF804FB4CE000001080004037
:101EA0002480004034800040448000407C8000401A
:101EB000024BDB6A024A1360704700BF00800C408F
:101EC000EC09002086B0039002910192039B03F17C
:101ED0000473DA00029B13449B000593059B019A4F
:101EE0001A6006B0704700BF00B583B0034600918A
:101EF0008DF807309DF80730002B24D09DF807306F
:101F0000012B1DD09DF80730022B16D09DF807300D
:101F1000032B0FD09DF80730042B08D09DF8073015
:101F2000052B02D141F6FF730FE000230DE04FF6C1
:101F3000FF730AE04FF6FF7307E04FF6FF7304E00C
:101F40004FF6FF7301E04FF6FF73009A134103F061
:101F50000103002B04D10B4840F28B2102F0E8F979
:101F600009499DF80720009B012000FA03F3184659
:101F70001346DB0013449B000B441033586003B03E
:101F80005DF804FB68E000000060004000B583B02D
:101F9000034600918DF807309DF80730002B24D0C0
:101FA0009DF80730012B1DD09DF80730022B16D06D
:101FB0009DF80730032B0FD09DF80730042B08D075
:101FC0009DF80730052B02D141F6FF730FE0002387
:101FD0000DE04FF6FF730AE04FF6FF7307E04FF690
:101FE000FF7304E04FF6FF7301E04FF6FF73009AB2
:101FF000134103F00103002B04D10B4840F2BA2136
:1020000002F096F909499DF80720009B012000FA8B
:1020100003F318461346DB0013449B000B441033B4
:10202000186003B05DF804FB68E000000060004049
:1020300000B585B0009111461A4603468DF8073069
:102040000B468DF8063013468DF805309DF80730A5
:10205000002B24D09DF80730012B1DD09DF80730B0
:10206000022B16D09DF80730032B0FD09DF80730B8
:10207000042B08D09DF80730052B02D141F6FF73E1
:102080000FE000230DE04FF6FF730AE04FF6FF73F9
:1020900007E04FF6FF7304E04FF6FF7301E04FF6E1
:1020A000FF73009A134103F00103002B03D128486A
:1020B000AE2102F03DF9009B072B13D82548254B94
:1020C000D3F80031009A920011460F228A40D24381
:1020D00013409DF80720009989008A401343C0F8F7
:1020E000003115E0009B083B03931A48194BD3F8C5
:1020F0000431039A920011460F228A40D2431340C2
:102100009DF80720039989008A401343C0F80431E1
:102110009DF80630104800991A46FFF7D3FE9DF847
:1021200005300E4800991A46FFF7CCFE094A009B7D
:10213000012101FA03F3C2F81C319DF81830084858
:1021400000991A46FFF7BEFE05B05DF804FB00BF1C
:1021500084E0000000600040086100400C61004025
:102160001061004010B584B00291019303468DF8D0
:102170000F3013468DF80E309DF80F30002B24D011
:102180009DF80F30012B1DD09DF80F30022B16D07B
:102190009DF80F30032B0FD09DF80F30042B08D083
:1021A0009DF80F30052B02D141F6FF730FE000239D
:1021B0000DE04FF6FF730AE04FF6FF7307E04FF6AE
:1021C000FF7304E04FF6FF7301E04FF6FF73029ACE
:1021D000134103F00103002B03D13C48E32102F03B
:1021E000A7F89DF80E30002B0FD0019B002B06D0D6
:1021F0009DF80F3018460299FFF7C8FE05E09DF8DC
:102200000F3018460299FFF76FFE029B072B1FD86D
:102210002F4C9DF80F202E489DF80F100B46DB0029
:102220000B449B0003445B680299890008460F2118
:102230008140C9430B409DF80E10029880008140F8
:1022400019431346DB0013449B002344596027E0E5
:102250001F4C9DF80F201E489DF80F100B46DB0009
:102260000B449B00034408331968029B03F180432D
:10227000083B9B0018460F238340DB4319409DF821
:102280000E00029B03F18043083B9B0000FA03F31E
:1022900019431346DB0013449B00234408331960A1
:1022A0009DF80E30002B0FD1019B002B06D09DF81E
:1022B0000F3018460299FFF769FE05E09DF80F30D0
:1022C00018460299FFF710FE04B010BD84E000002C
:1022D0000060004000B583B001900091019B3C4A32
:1022E00093420FD0019B3B4A93420BD0019B3A4A49
:1022F000934207D0019B394A934203D038484E217C
:1023000002F016F8009B1B7883F00103DBB2002B70
:1023100002D0019B02225A60019B00225A62009B5C
:102320009B781A06009BDB781B041A43009B9B7961
:102330009B021A43009BDB791B021343009A127A1B
:102340001A43009B5B78002B01D0402300E0002360
:102350001A43009B5B7A002B01D0802300E000230E
:102360001A43009B9B7A002B01D0202300E000231E
:102370001A43009BDB7A002B01D0102300E00023DE
:102380001A43009B1B79002B02D04FF4005300E04E
:1023900000231A43009B5B79002B02D04FF080533F
:1023A00000E000231A43009B1B7B002B01D0082375
:1023B00000E000231A43019B1A60009B1B78002B4E
:1023C00002D0019B01225A6003B05DF804FB00BFFC
:1023D000000001400004014000080140000C0140E1
:1023E000BCE0000000B585B0039002910192039B10
:1023F0002F4A93420FD0039B2E4A93420BD0039B4C
:102400002D4A934207D0039B2C4A934203D02C4879
:10241000862101F08DFF029B022B03D928488721DA
:1024200001F086FF019B1B789A06019B5B781B06D7
:102430001A43019B9B781B041A43019BDB781B0307
:102440001A43019B1B799B021A43019B5B791B0278
:102450001343019A92791A43019BDB79002B02D036
:102460004FF4001300E000231A43019B1B7A002B5A
:1024700002D04FF4801300E000231A43019B5B7AE3
:10248000002B01D0102300E000231A43019B9B7A0C
:10249000002B01D0042300E000231A430399029B80
:1024A00003331B010B441A6005B05DF804FB00BF49
:1024B000000001400004014000080140000C014000
:1024C000BCE0000082B003468DF8073007499DF953
:1024D00007305B099DF8072002F01F02012000FA77
:1024E00002F241F8232002B0704700BF00E100E093
:1024F00082B003468DF8073007499DF907305B0924
:102500009DF8072002F01F02012000FA02F260335A
:1025100041F8232002B0704700E100E082B0019052
:10252000024A019BC2F81C3102B0704700600040B3
:1025300082B0064BD3F810310193044BD3F8142129
:10254000019B1340184602B0704700BF0060004076
:1025500072B6074B1B68B3F1FF3F04D0044B1B68F6
:102560000133034A1360024B1B681846704700BFD3
:10257000F009002082B00B4B1B68002B0DD0094BDB
:102580001B68013B074A1360064B1B680193019BC4
:10259000002B00D162B6019B00E00023184602B078
:1025A000704700BFF009002086B00190019B0593A1
:1025B000059B93FAA3F30493049B0393039BB3FA41
:1025C00083F30293029BDBB2184606B0704700BF4C
:1025D00008B50B20FFF78CFF0B20FFF773FF0120DE
:1025E000FFF786FF0120FFF76DFF08BD00B583B040
:1025F000034600918DF80730FFF7AAFF9DF80730DA
:102600000449009A41F82320FFF7B4FF03B05DF8B6
:1026100004FB00BFF409002000B585B0019019E06B
:102620000198FFF7C1FF0390039B012202FA03F315
:10263000DB431A46019B13400193094A039B52F85E
:1026400023300293029B002B04D0039BDAB2029B3F
:1026500010469847019B002BE2D105B05DF804FBC2
:10266000F409002000B583B0FFF762FF024645F28F
:102670005553134001930198FFF750FF0198FFF75E
:10268000CBFF03B05DF804FB00B583B0FFF750FF4C
:1026900002464AF6AA23134001930198FFF73EFF32
:1026A0000198FFF7B9FF03B05DF804FB82B0034661
:1026B0008DF8073007499DF907305B099DF8072021
:1026C00002F01F02012000FA02F241F8232002B0BA
:1026D000704700BF00E100E082B003468DF807308C
:1026E00007499DF907305B099DF8072002F01F029A
:1026F000012000FA02F2603341F8232002B0704753
:1027000000E100E072B6074B1B68B3F1FF3F04D055
:10271000044B1B680133034A1360024B1B681846C5
:10272000704700BFF009002082B00B4B1B68002BE4
:102730000DD0094B1B68013B074A1360064B1B6811
:102740000193019B002B00D162B6019B00E00023A6
:10275000184602B0704700BFF00900200649064B3A
:1027600003F5703308331B6823F0010201F5703361
:1027700008331A60704700BF00400C400649064B02
:1027800003F5703308331B6843F0010201F5703321
:1027900008331A60704700BF00400C40064B03F539
:1027A0007033183300221A60034B03F5703318336B
:1027B0004FF4C0521A60704700400C4000B585B01D
:1027C000019000238DF80F3003AB0198194600F0FB
:1027D00013F80346002B09D1BDF80C3003F00103B8
:1027E000002B14BF012300238DF80F309DF80F300C
:1027F000184605B05DF804FB86B001900091FF23F8
:102800008DF81730019B1B78002B21D0019B9B7802
:102810005A01234B13441B680493049B03F4402385
:102820000393039BB3F5402F03D0039BB3F5002F15
:102830002FD1049B03F40013002B14BF01230023AA
:10284000DBB29AB2009B1A8000238DF8173020E08B
:10285000019B9B785A01134B13441B680493049B00
:1028600003F440230393039BB3F5402F03D0039B52
:10287000B3F5002F0DD1049B03F40013002B14BFFC
:1028800001230023DBB29AB2009B1A8000238DF84B
:1028900017309DF817305BB2184606B0704700BF7E
:1028A00000091040000B104082B00190044B019AC7
:1028B00003F5723303F58A731A6002B0704700BFE4
:1028C00000400C4082B00190044B019A03F5723332
:1028D00003F545731A6002B0704700BF00400C401A
:1028E00082B0019000910E49019B43F4002201F552
:1028F000723303F588731A600949094B03F5723383
:1029000003F580731B6823F03C42009B134343F0A4
:10291000044201F5723303F580731A6002B0704708
:1029200000400C4082B0019000910E49019B43F49D
:10293000002201F5723303F544731A600949094B0B
:1029400003F5723303F540731B6823F03C42009B90
:10295000134343F0044201F5723303F540731A60E8
:1029600002B0704700400C4084B00190019B1B698D
:10297000002B04D101230393002302930DE0019B5C
:102980001B69019A92891344013B019A9289B3FB16
:10299000F2F30393019B1B690293019B9B785A01FD
:1029A000144B1344019A92785101124A0A44126955
:1029B00002F00041029A1143039AD2040A431A61B9
:1029C000019B9B785A010B4B1344019A92685A6100
:1029D000019B9B785A01074B1344019A927851014D
:1029E000044A0A44126822F03C4242F004421A604F
:1029F00004B070470009104084B00190019B1B692E
:102A0000002B05D101230393019B9B89029311E0C5
:102A1000019B1B69019A92891344013B019A928997
:102A2000B3FBF2F30393019B9B891A46039B03FBC1
:102A300002F30293019B9B785A01164B1344019AAF
:102A400092785101134A0A44126902F06041029AD5
:102A50001143039AD2040A431A61019B029A9A61B4
:102A6000019B9B785A010B4B1344019A92685A615F
:102A7000019B9B785A01074B1344019A92785101AC
:102A8000044A0A44126822F03C4242F004421A60AE
:102A900004B07047000B104000B583B00190019B5B
:102AA0009B78002B03D1019800F008F802E0019810
:102AB00000F042F803B05DF804FB00BF00B585B03C
:102AC0000190019B1B78002B21D0019B1B69002BDF
:102AD00002D1019B01225A70019B9B681846FFF7A7
:102AE000E3FE019B1B690393019B9B89ADF80A30B0
:102AF000BDF80A20039B9A4228BF1A460D4B1B685B
:102B0000D3F8F43010461946FFF7EAFE0FE0019BB8
:102B10009B681846FFF7D6FE019B9B891A46054B1A
:102B20001B68D3F8F43010461946FFF7FBFE05B0DA
:102B30005DF804FB3404002000B583B00190019BD4
:102B40001B78002B03D00198FFF70EFF02E00198DD
:102B5000FFF752FF03B05DF804FB00BF84B00346EB
:102B60008DF80730002302939DF807305BB2002BED
:102B70000ADA194B1A689DF8073003F00F03134463
:102B800093F8D430039309E0134B1A689DF807308B
:102B900003F00F03134493F8E4300393039B002BDB
:102BA0000BD00D4B1968039A13469B001344DB00AE
:102BB00030330B440433029309E09DF8073003F0EF
:102BC0000F03002B03D1044B1B6834330293029B89
:102BD000184604B0704700BF3404002008B5FFF762
:102BE00091FD01F0EFFBFFF79FFD08BD08B5FFF772
:102BF00089FD01F077FDFFF797FD08BD024B1B68CB
:102C000093F82030184670473404002000B58FB088
:102C100001901120FEF7BAF80346042B03D01120CF
:102C20000421FEF77DF9002001210022FEF7F0FAD1
:102C300003F0B6F8884B1B6818460021F822FDF710
:102C4000EDFA854B1B68844A126804321A60824B85
:102C50001B68019A12685A627F4B1B68019A52687E
:102C60009A627D4B1B68019A9268DA627A4B1B6804
:102C7000019A127B9A77784B1B68072283F82020F1
:102C8000754B1B68002283F82120734B1B680022C0
:102C900083F82220704B1B68019A52691A636E4BAD
:102CA0001B6800225A776C4B1B6834330693069BD3
:102CB00000221A70069B00229A60069B00229A70DE
:102CC000069B0122DA81069B0022DA70069B002215
:102CD0001A71069B00225A71019B1B68DB799AB21C
:102CE000069B9A81069B9B89202B05D15A4B1B681A
:102CF0000122C3F8F4200CE0069B9B89402B05D1F0
:102D0000554B1B680022C3F8F42002E06FF0030368
:102D1000A0E1069B00221A61069B00225A61069BD5
:102D2000002283F82020069B00225A62069B9B8982
:102D30009B089BB21A46069BDA61069BDB69019AE7
:102D40001269127802FB03F30993069BDB690133D6
:102D5000019A1269127802FB03F30A9300230D9380
:102D600000230893002307933B4B1B689B6A0B933C
:102D7000394B1B689B6A5B889BB21A460B9B1344BA
:102D8000059301238DF83330FBE00B9B1B78002B60
:102D900007D1324840F25B1101F0CAFA6FF0030329
:102DA00058E10B9B01331B78052B40F0C4800D9B31
:102DB00001330D930B9B0493274B19680D9A13460F
:102DC0009B001344DB0030330B4404330693049B15
:102DD0009B78DBB2DB09DAB2069B1A70069B0022F5
:102DE0009A60049B9A78069BDA70069BDB7803F066
:102DF0000F03DAB2069B9A70069B9B781A46012352
:102E000093409AB2069BDA81049BDB7803F00303BC
:102E1000DAB2069B1A71049B9B889AB2069B9A8130
:102E2000069B00221A61069B00225A61069B002223
:102E300083F82020069B00225A62019B1A690D9B91
:102E400013441B78002B0BD104484FF4BE7101F0E2
:102E50006FFA6FF00303FDE03404002038E1000056
:102E6000069B1B78002B36D0089B013308939DF8F6
:102E700033305A1C8DF83320069A5371069B9B8978
:102E80000333002B00DA03339B101946019B1A69A8
:102E90000D9B13441B7803FB01F31A46069BDA6172
:102EA0006E4B1B68069A927811460D9AD2B20B446B
:102EB00083F8D420069BDB69099A13440993069B87
:102EC0009B78062B57D9664840F28B1101F030FAF7
:102ED0006FF00303BEE0079B01330793069B9B89BA
:102EE0000333002B00DA03339B100133019A11697D
:102EF0000D9A0A44127802FB03F31A46069BDA6124
:102F0000564B1B68069A927811460D9AD2B20B4422
:102F100083F8E420069BDB690A9A13440A93069B14
:102F20009B78062B27D94E4840F2991101F000FA00
:102F30006FF003038EE00B9B01331B78042B1AD137
:102F40000B9B0393039BDB78002B14D1434B1B6833
:102F5000DA7F039B9B789A4207D0414840F2A71141
:102F600001F0E6F96FF0030374E03C4B1B68DA7F75
:102F70000132D2B2DA770B9B1B781A460B9B1344B3
:102F80000B930B9A059B9A42FFF4FFAE0A9B1933F1
:102F90000A93324B1B689B6A1A79304B1B68DB7FA4
:102FA0009A4207D02E484FF4DD7101F0C1F96FF05D
:102FB00003034FE00D9B032B07D0294840F2C111BA
:102FC00001F0B6F96FF0030344E0089B062B07D924
:102FD00023484FF4E47101F0ABF96FF0030339E0DB
:102FE000079B062B07D91E4840F2CF1101F0A0F92C
:102FF0006FF003032EE0FFF785FB1A4A194B1B6C99
:1030000043F00C03136418480821FDF789FFFFF70C
:10301000A5FB0A98099901F0E7F90346002B10D1A6
:10302000FFF7BCFBFFF7AAFB0520FFF755FB0520C8
:10303000FFF73CFB002000F0A9F8FFF775FB002329
:1030400008E0FFF771FB06484FF4FA7101F070F9E0
:103050006FF0030318460FB05DF804FB3404002042
:1030600038E1000000800C400723200000B587B045
:103070000390029101920093039BDBB21846FFF785
:103080006DFD0590059B002B07D13F4840F229219B
:1030900001F04EF96FF0030372E0019BB3F5002FCE
:1030A00008DA059B9B891A46019B93FBF2F3B3F563
:1030B000806F07DB344840F2312101F039F96FF0BD
:1030C00003035DE0029B03F00303002B07D02E48AF
:1030D0004FF40E7101F02CF96FF0030350E0FFF78D
:1030E00011FB0598FFF76AFB0346002B04D0FFF79E
:1030F0001BFB6FF0040343E0059B93F82030002B8B
:1031000004D0FFF711FB6FF0010339E0059B9B78BA
:10311000002B09D0FFF772FD0346052B04D0FFF703
:1031200003FB6FF008032BE0059B029A9A60019A5B
:10313000059B1A61059B00225A61059B9B78002B19
:1031400003D1059B00221A700DE0059B1B78002B14
:1031500009D0FFF7E9FA0C4840F25E2101F0E8F8E7
:103160006FF003030CE0059B022283F82020059BEF
:10317000009A5A620598FFF78FFCFFF7D5FA0023F3
:10318000184607B05DF804FB38E1000000B585B0D3
:1031900003468DF807301C4B1B6893F820308DF8E0
:1031A0000F309DF80730062B05D1174B1B689DF893
:1031B0000F2083F82120144B1B68134A126892F8E1
:1031C000202083F82220104B1B689DF8072083F8ED
:1031D00020200D4B1B681B6B5B68002B10D09DF8EB
:1031E0000F209DF807309A420AD0074B1B681B6BD3
:1031F0005B689DF80F109DF8072008461146984718
:1032000005B05DF804FB00BF3404002000B587B0B2
:103210000390029101920093039BDBB21846FFF7E3
:103220009DFC0590059B002B07D141484FF44F7141
:1032300001F07EF86FF0030375E0019BB3F5002FFA
:1032400008DA059B9B891A46019B93FBF2F3B3F5C1
:10325000806F07DB36484FF4517101F069F86FF069
:10326000030360E0029B03F00303002B07D0304808
:1032700040F24B3101F05CF86FF0030353E0FFF7CD
:1032800041FA0598FFF79AFA0346002B04D0FFF79E
:103290004BFA6FF0040346E0059B93F82030002BB7
:1032A00004D0FFF741FA6FF001033CE0059B9B78E7
:1032B000002B09D0FFF7A2FC0346052B04D0FFF733
:1032C00033FA6FF008032EE0059B029A9A60019A88
:1032D000059B1A61059B00225A61059B9B78002B78
:1032E00003D1059B01221A7010E0059B1B7883F027
:1032F0000103DBB2002B09D0FFF716FA0C4840F2AD
:10330000713101F015F86FF003030CE0059B012209
:1033100083F82020059B009A5A620598FFF7BCFBB2
:10332000FFF702FA0023184607B05DF804FB00BF60
:1033300038E1000084B001900B468DF803309DF811
:103340000330002B03D0019B002283F82020019B37
:103350001B78002B30D0019BDB890393019B9B786A
:103360005A01334B13441B6823F070530293029BA2
:1033700003F40043002B13D1029A2E4B1340019A01
:1033800092891343019A127992041343019A527954
:103390009205134343F0C05343F40043029303E008
:1033A000029B43F080530293019B9B785A01204B70
:1033B0001344029A1A602CE0019BDB891B040393DF
:1033C000019B9B785A011C4B13441B6823F07053DC
:1033D0000293029B03F40043002B0FD1029A174B78
:1033E0001340019A92891343019A1279920413436C
:1033F00043F0C05343F40043029303E0029B43F0C5
:1034000080530293019B9B785A010B4B1344029A01
:103410001A600B490A4B03F572331C331A68039B7D
:103420001A4301F572331C331A6004B0704700BFB1
:103430000009104000F813FC000B104000F8D3FF07
:1034400000400C4084B00190019B1B78002B0AD0F7
:10345000019B9B785A01114B134400221A60019B77
:10346000DB8903930AE0019B9B785A010C4B1344C0
:1034700000221A60019BDB891B0403930949094B55
:1034800003F572331C331A68039BDB431A4001F5C2
:1034900072331C331A6004B0704700BF000910403B
:1034A000000B104000400C4086B001900091FF23BB
:1034B0008DF81730019B1B78002B21D0019B9B7846
:1034C0005A01234B13441B680493049B03F44023C9
:1034D0000393039BB3F5402F03D0039BB3F5002F59
:1034E0002FD1049B03F40013002B14BF01230023EE
:1034F000DBB29AB2009B1A8000238DF8173020E0CF
:10350000019B9B785A01134B13441B680493049B43
:1035100003F440230393039BB3F5402F03D0039B95
:10352000B3F5002F0DD1049B03F40013002B14BF3F
:1035300001230023DBB29AB2009B1A8000238DF88E
:1035400017309DF817305BB2184606B0704700BFC1
:1035500000091040000B104082B003468DF8073080
:103560000749074B03F572331B6823F4FE639DF88C
:10357000072012011A4301F572331A6002B0704736
:1035800000400C4086B00190FF238DF81330019B62
:103590001B78002B24D0019B9B785A01224B1344AB
:1035A0001B6823F070530593059B03F4402303939A
:1035B000039BB3F5802F30D0059B002B03DA059BCE
:1035C00043F080430593019B9B785A01164B1344AB
:1035D000059A42F400121A6000238DF813301CE0A3
:1035E000019B9B785A01114B13441B6823F07053C5
:1035F0000593059B03F440230393039BB3F5802FAE
:103600000BD0019B9B785A01084B1344059A42F456
:1036100000121A6000238DF813309DF813305BB24E
:10362000184606B0704700BF00091040000B10405C
:1036300086B00190FF238DF81730019B1B78002B7B
:1036400027D0019B9B785A01284B13441B6823F019
:1036500070530493049B03F440230393039BB3F53B
:10366000402F03D0039BB3F5002F39D1049B43F0C7
:1036700080530493049B23F400130493019B9B78D1
:103680005A011A4B1344049A1A6000238DF817301C
:1036900026E0019B9B785A01154B13441B6823F0CD
:1036A00070530493049B03F440230393039BB3F5EB
:1036B000402F03D0039BB3F5002F11D1049B43F09F
:1036C00080530493049B23F400130493019B9B7881
:1036D0005A01074B1344049A1A6000238DF81730DF
:1036E0009DF817305BB2184606B0704700091040CD
:1036F000000B104000B585B003468DF8073001235C
:10370000039312E00C4B1968039A13469B00134471
:10371000DB0030330B441A1D9DF807301046194664
:10372000FFF708FE039B01330393039B032BE9DDA3
:1037300005B05DF804FB00BF3404002000B585B07F
:1037400003468DF807300123039315E0104B1968E9
:10375000039A13469B001344DB0030330B440433BD
:103760000293029B93F82030002B02D10298FFF7BE
:1037700069FE039B01330393039B032BE6DD9DF955
:103780000730184601F0DCF905B05DF804FB00BF16
:103790003404002084B003468DF8073000230293E0
:1037A0009DF807305BB2002B0ADA194B1A689DF8B6
:1037B000073003F00F03134493F8D430039309E068
:1037C000134B1A689DF8073003F00F03134493F866
:1037D000E4300393039B002B0BD00D4B1968039A25
:1037E00013469B001344DB0030330B440433029335
:1037F00009E09DF8073003F00F03002B03D1044BC1
:103800001B6834330293029B184604B0704700BF14
:103810003404002000B585B00190019B1B68029321
:10382000019B1B6B9B68002B0BD0019B1B6B9B6848
:10383000029898470390039B13F1030F01D0039B59
:1038400057E04FF0FF330393029B1B7803F06003B4
:10385000DBB2002B4CD1029B5B780B2B47D801A22B
:1038600052F823F0953800009F380000EF38000030
:10387000A9380000EF380000B3380000BD38000060
:10388000EF380000C7380000D1380000DB380000F6
:10389000E5380000019800F0A9F9039028E00198AC
:1038A00000F02CF8039023E0019800F03BFB03901C
:1038B0001EE0019800F062FA039019E0019800F010
:1038C000CDF8039014E0019800F078F803900FE031
:1038D000019800F0A7FA03900AE0019800F042F97D
:1038E000039005E0019800F097FB039000E000BF13
:1038F000039B184605B05DF804FB00BF00B587B018
:1039000001904FF0FF330593019B1B680493049BC8
:10391000DB889BB2002B02D04FF0FF334AE0049BC0
:103920001B78C3F30403DBB2002B02D0022B22D09E
:103930003FE0049B9B889BB2002B1BD1049B5B88C0
:103940009BB2012B16D1019B93F82030042B04D09D
:10395000019B93F82030052B0CD1019B9B6ADB79EE
:1039600003F02003002B05D0019B00225A7700238F
:1039700005931EE01DE0049B9B889BB2DBB21846BA
:10398000FFF708FF0390039B002B12D0039B9B784B
:10399000002B0ED0049B5B889BB2002B09D1019BAE
:1039A00093F82030052B04D10398FFF741FE03461E
:1039B0000593059B184607B05DF804FB00B587B07A
:1039C00001904FF0FF330593019B1B680493224B3A
:1039D0000393049B9B889BB2002B17D1049BDB882D
:1039E0009BB2012B12D1049B5B889BB2002B0DD1A3
:1039F000049B1B7823F07F03DBB2002B06D0049BD3
:103A00001B7803F01F03DBB2002B02D04FF0FF3313
:103A10001EE0019B93F82030042B0AD1039B002267
:103A20001A700020039901220023FFF7EFFB059095
:103A30000DE0019B93F82030052B08D1019B1C332E
:103A40000020194601220023FFF7E0FB0590059BAB
:103A5000184607B05DF804FB2C0B002000B58BB0B6
:103A600001900023ADF82630002308934FF0FF3378
:103A70000793019B1B680693069B1B7803F01F03AB
:103A8000DBB2002B06D1069B1B7823F07F03DBB251
:103A9000002B02D14FF0FF3360E0069B5B889BB2A6
:103AA000DBB20593069B5B889BB21B0A9BB2022B81
:103AB00010D0032B1ED0012B31D1059B002B00D041
:103AC0002DE0019B5B6A0893019B5B6A1B78ADF854
:103AD000263024E0059B002B00D020E0019B9B6A50
:103AE0000893019B9B6A9A78DB781B021343ADF81D
:103AF000263014E0019B9B7F1A46059B9A420DDD00
:103B0000019BDA6A059B9B0013441B680493049B8A
:103B10000893049B1B78ADF82630FFE700BFBDF883
:103B20002630002B19D0BDF82630ADF80E30069B9C
:103B30009A79DB791B021343ADF80C30BDF80C20E9
:103B4000BDF80E30934228BF13469BB2002008995F
:103B50001A460023FFF75AFB0790079B18460BB045
:103B60005DF804FB00B587B001904FF0FF3305937B
:103B7000019B1B6804931C4B0393049B9B889AB284
:103B8000019BDB7F9BB29A4217D2049BDB889BB2DE
:103B9000012B12D1049B5B889BB2002B0DD1049B9F
:103BA0001B7823F07F03DBB2002B06D0049B1B782D
:103BB00003F01F03DBB2012B02D04FF0FF330FE005
:103BC000019B93F82030052B09D1039B00221A702A
:103BD0000020039901220023FFF718FB0590059BA5
:103BE000184607B05DF804FB2C0B002000B587B029
:103BF00001904FF0FF330593019B1B6804935E4BCC
:103C00000393049B5B889BB2002B0BD1049BDB8846
:103C10009BB2022B06D1049B1B7823F07F03DBB2FF
:103C2000002B02D14FF0FF33A2E0049B1B78C3F3BB
:103C30000403DBB2012B4CD0022B6DD0002B40F0E3
:103C40009680049B9B889BB2002B41D1019B93F8EB
:103C50002030042B04D0019B93F82030052B37D162
:103C6000039B00221A80019B5B7F002B06D0039BE5
:103C70001B8843F002039AB2039B1A80019B1B6BC3
:103C8000DB68002B0ED0019B1B6BDB68984703465B
:103C9000002B15D0039B1B8843F001039AB2039BB2
:103CA0001A800DE0019B9B6ADB7903F04003002B37
:103CB00006D0039B1B8843F001039AB2039B1A8032
:103CC0000020039902220023FFF7A0FA05904EE09E
:103CD0004DE0019B93F82030042B04D1049B9B887A
:103CE0009BB2002B0CD0019B93F82030052B12D1F6
:103CF000049B9B889AB2019BDB7F9BB29A420AD2BB
:103D0000039B00221A800020039902220023FFF760
:103D10007DFA05902BE02AE0049B9B889BB2DBB2E6
:103D20001846FFF737FD0290029B002B1ED0019B27
:103D300093F82030042B03D1029B9B78002B04D0F6
:103D4000019B93F82030052B10D102980399FFF7BF
:103D5000ABFB03460593059B002B07D1002003997D
:103D600002220023FFF752FA0590FFE700BF059BF0
:103D7000184607B05DF804FB2C0B002000B585B099
:103D800001904FF0FF330393019B1B680293029B4A
:103D90009B889BB2002B10D1029BDB889BB2002B2F
:103DA0000BD1029B5B889BB27F2B06D8029B1B78B2
:103DB00003F01F03DBB2002B02D04FF0FF332DE0E6
:103DC000019B93F82030032B11D1029B5B889BB29F
:103DD000002B02D00420FFF7D9F9029B5B889BB22D
:103DE000DBB21846FFF7B8FB0023039315E0019BF5
:103DF00093F82030042B10D1029B5B889BB2002BE0
:103E000002D10320FFF7C2F9029B5B889BB2DBB2B1
:103E10001846FFF7A1FB00230393039B184605B048
:103E20005DF804FB00B585B001904FF0FF330393BC
:103E3000019B1B680293029B9B889BB2002B12D1B3
:103E4000029BDB889BB2002B0DD1029B5B889BB24F
:103E50001B0A9BB2002B06D1029B1B7803F01F03A9
:103E6000DBB2002B02D04FF0FF3356E0019B93F8FA
:103E70002030042B25D1029B5B889BB2002B08D0FD
:103E8000029B5B889AB2019B9B6A5B799BB29A42C8
:103E900042D1029B5B889BB2DAB2019B1A77029BEC
:103EA0005B889AB2019B9B6A5B799BB29A4205D16F
:103EB0000120FFF71FFC0520FFF768F9002303939B
:103EC0002AE0019B93F82030052B25D1029B5B88CB
:103ED0009BB2002B08D0029B5B889AB2019B9B6A25
:103EE0005B799BB29A4217D1029B5B889BB2DAB294
:103EF000019B1A77029B5B889BB2002B07D10420A1
:103F0000FFF744F96FF00800FFF718FC02E000200B
:103F1000FFF7F0FB00230393039B184605B05DF801
:103F200004FB00BF00B587B001904FF0FF3305934D
:103F3000019B1B680493049BDB889BB2002B02D07F
:103F40004FF0FF3363E0049B1B78C3F30403DBB241
:103F5000002B02D0022B1DD058E0049B9B889BB203
:103F6000002B16D1049B5B889BB2012B11D1019BC6
:103F700093F82030052B0CD1019B9B6ADB7903F071
:103F80002003002B05D0019B01225A7700230593C3
:103F90003CE03BE0049B9B889BB2DBB21846FFF7FA
:103FA000F9FB0390039B002B30D0039B9B78002BE5
:103FB0002CD0049B5B889BB2002B27D1019B93F8EC
:103FC0002030052B22D10398FFF7DCFA0346059336
:103FD000039B002283F82020059B002B16D1039B16
:103FE00093F82030002B11D0039B5B6A002B0DD07F
:103FF000039B5B6A0293039B00225A62039B5969ED
:10400000039B1A69029B6FF004009847059B1846B2
:1040100007B05DF804FB00BF00B585B001904FF01C
:10402000FF330393019B1B680293029B9B889AB208
:10403000019BDB7F9BB29A421AD2029BDB889BB228
:10404000002B15D1029B5B889BB2002B10D1019BEA
:1040500093F82030052B0BD1029B1B7803F01F0334
:10406000DBB2012B04D10020FFF744FB002300E06A
:10407000039B184605B05DF804FB00BF82B0034601
:104080008DF8073007499DF907305B099DF8072037
:1040900002F01F02012000FA02F2603341F82320EF
:1040A00002B0704700E100E072B6074B1B68B3F145
:1040B000FF3F04D0044B1B680133034A1360024BDB
:1040C0001B681846704700BFF009002082B00B4BF8
:1040D0001B68002B0DD0094B1B68013B074A13607E
:1040E000064B1B680193019B002B00D162B6019B1C
:1040F00000E00023184602B0704700BFF00900201E
:10410000084B03F57033103310221A6000BF054BC3
:1041100003F5703310331B6803F01003002BF6D146
:10412000704700BF00400C4082B003468DF8073056
:104130000A499DF807309B0143F0200201F57033D6
:1041400010331A6000BF054B03F5703310331B6842
:1041500003F02003002BF6D102B0704700400C4062
:1041600084B00190019B1B78002B0AD0019B9B78A7
:104170005A01114B134400221A60019BDB890393FF
:104180000AE0019B9B785A010C4B134400221A60F1
:10419000019BDB891B0403930949094B03F5723327
:1041A0001C331A68039BDB431A4001F572331C333E
:1041B0001A6004B0704700BF00091040000B1040A7
:1041C00000400C4084B00190094B03F5723310336A
:1041D0001B680393019B9B785A01064B13449B6811
:1041E0000293029A039B1340184604B0704700BF25
:1041F00000400C400009104084B00190019B9B7866
:104200005A01084B13449B680393074B03F5723321
:1042100014331B68039A13400393039B184604B09E
:10422000704700BF000B104000400C4082B001906E
:10423000019B1B78002B10D0019B9B785A01184BD7
:104240001344019A92785101154A0A44126822F0E7
:10425000F84242F090421A601FE0019B9B785A019D
:10426000104B1344019A927851010E4A0A44126885
:1042700022F03C4242F000421A60019B9B785A01B6
:10428000084B1344019A92785101064A0A44126875
:1042900022F0F84242F090421A6002B0704700BF2C
:1042A00000091040000B104084B003468DF8073021
:1042B000002302939DF807305BB2002B0ADA194BFA
:1042C0001A689DF8073003F00F03134493F8D430B5
:1042D000039309E0134B1A689DF8073003F00F03AE
:1042E000134493F8E4300393039B002B0BD00D4B46
:1042F0001968039A13469B001344DB0030330B44C8
:104300000433029309E09DF8073003F00F03002BFC
:1043100003D1044B1B6834330293029B184604B04C
:10432000704700BF3404002082B0019002B0704793
:1043300000B583B0019000910098FFF7F5FFFEE70C
:1043400008B51F491E4B03F5733303F500731B6853
:1043500023F0010201F5733303F500731A60184965
:10436000174B03F5733303F500731B6823F00C023E
:1043700001F5733303F500731A601149104B03F50F
:10438000703310331B6843F0010201F570331033B2
:104390001A6000BF0A4B03F5703310331B6803F03B
:1043A0000103002BF6D1012001F076FC00BF044B85
:1043B00003F5703310331B68002BF8DA08BD00BF1B
:1043C00000400C400749074B03F5723304331B6868
:1043D00023F4F06222F0020201F5723304331A6012
:1043E000704700BF00400C4000B58DB001900091B7
:1043F000B6480121FCF746FB0520052104220023D5
:10440000FDF7B0FEB24B03229A61FFF799FFB04966
:10441000AF4B03F570330C331B6823F0604343F05C
:10442000804201F570330C331A60FFF74FFE3220E3
:1044300001F0F4FBFFF738FEA549A54B03F57233F5
:104440001B6843F0030201F572331A60A049A04BC8
:1044500003F572331B6843F0040201F572331A60EE
:104460009B499B4B03F572331B6823F4C05201F543
:1044700072331A609649964B03F5703308331B6804
:1044800023F03E0343F0220201F5703308331A6033
:104490008F498F4B03F5723304331B6823F40743B2
:1044A00023F0800343F4004201F5723304331A60B1
:1044B000019B099310230893089A099B934238BFE4
:1044C0001346ADF82C308249BDF82C30C3F30902F5
:1044D00001F5703324331A607E4B1B681B6D079304
:1044E00010230693069A079B934238BF1346ADF8F4
:1044F0002A307749BDF82A301B041A46BDF82C3003
:10450000C3F309031A4301F5703328331A600123FA
:104510008DF82E3045E001238DF82F3038E09DF8DE
:104520002F3063F07F03DBB21846FFF7BDFE059026
:10453000059B002B27D0059B5B799DF82E209A4286
:1045400021D1BDF82C20BDF82A301344ADF82C3011
:10455000059BDB69049310230393039A049B934206
:1045600038BF1346ADF82A30059B5B799A005A4B49
:104570001344BDF82A2012041146BDF82C20C2F3C2
:104580000A020A431A609DF82F3001338DF82F304C
:104590009DF82F30062BC2D99DF82E3001338DF8AF
:1045A0002E309DF82E30062BB5D9019A009B13446E
:1045B000B3F5007F01D9FC2383E0BDF82C30B3F5BF
:1045C000007F01D9FC237CE01020FFF7ADFDFFF751
:1045D00097FD3F4B03F57233103300221A603C4BBA
:1045E00003F57233143300221A60394B03F572332A
:1045F0001C3300221A60364B03F572333433002229
:104600001A6000238DF82F301AE09DF82F305A01E0
:10461000324B134400221A609DF82F305A012F4B61
:10462000134400221A619DF82F305A012B4B13447A
:104630004FF0FF329A609DF82F3001338DF82F3004
:104640009DF82F30062BE0D900238DF82F301AE08B
:104650009DF82F305A01224B134400221A609DF816
:104660002F305A011E4B134400221A619DF82F303F
:104670005A011B4B13444FF0FF329A609DF82F30C4
:1046800001338DF82F309DF82F30062BE0D9104ADA
:104690000F4B1B6843F4003313600D4B03221A6168
:1046A0000B4B03225A610A4B5B6803F00103002B9A
:1046B00003D0074B0122DA6002E0054B0222DA60E8
:1046C00000235BB218460DB05DF804FB00D2040075
:1046D00000400C403404002000011040000910404C
:1046E000000B10400849084B03F5723304331B6874
:1046F00023F4F06323F0020343F0020201F5723366
:1047000004331A60704700BF00400C4000B587B00A
:104710000023ADF80A300023ADF8083001230593DB
:1047200041E0AE4B1968059A13469B001344DB0029
:1047300030330B4404330193019B93F82030002B5A
:104740002ED0019B1B78002B15D0019BDA89BDF878
:104750000A301343ADF80A30019B9B785A01A04BF5
:104760001344019A927851019D4A0A44926842F09A
:1047700042029A6014E0019BDA89BDF808301343C5
:10478000ADF80830019B9B785A01964B1344019A6F
:1047900092785101934A0A44926842F002029A6068
:1047A000059B01330593059B032BBADDBDF80A3049
:1047B000002B3BD08C498C4B03F5723310331B68B4
:1047C00043F0420201F5723310331A60BDF80A302B
:1047D000ADF80E300123059325E0804B1968059A4A
:1047E00013469B001344DB0030330B440433019326
:1047F000019BDA89BDF80E3013409BB2002B0FD01D
:10480000019B9B785A01764B1344019A927851018F
:10481000734A0A44126822F0705242F000621A6031
:10482000059B01330593059B032BD6DDBDF80830AE
:10483000002B52D06C496C4B03F5723304331B6868
:1048400023F4F06343F4806201F5723304331A6099
:104850006549654B03F5703318331B6843F08002DC
:1048600001F5703318331A605F495F4B03F57233FB
:1048700004331B6823F4F06343F4007201F57233D0
:1048800004331A6043F69823049302E0049B013B2F
:104890000493554B03F5703314331B6803F0800306
:1048A000002B02D1049B002BF0D14F494E4B03F556
:1048B000703318331B6823F0800201F5703318330E
:1048C0001A604949484B03F5723314331B6843F0AF
:1048D000020201F5723314331A60BDF80A30002B5E
:1048E00052D0BDF80A30ADF80E3043F69823049349
:1048F000012305932FE0394B1968059A13469B0055
:104900001344DB0030330B4404330193019BDA89F9
:10491000BDF80E3013409BB2002B19D00198FFF761
:1049200051FC034603F04003002B11D0019B9B7800
:104930005A012B4B134440229A60019BDB899BB2A6
:10494000DB439AB2BDF80E3013409BB2ADF80E3087
:10495000059B01330593059B032BCCDD049B013B99
:104960000493BDF80E30002B02D0049B002BBFD166
:104970001D491D4B03F5723310331B6823F04002B1
:1049800001F5723310331A600123059315E0134BC0
:104990001968059A13469B001344DB0030330B441F
:1049A00004330193019B93F82030002B02D001982F
:1049B000FFF73CFC059B01330593059B032BE6DDCC
:1049C000BDF80A30ADF80E30BDF80830ADF80C3047
:1049D00043F6982304930123059364E034040020F4
:1049E00000091040000B104000400C40504B19686B
:1049F000059A13469B001344DB0030330B44043309
:104A00000193019B1B78002B21D0019BDA89BDF813
:104A10000E3013409BB2002B19D00198FFF7D2FB48
:104A2000034603F00203002B11D0019B9B785A012F
:104A3000404B134402229A60019BDB899BB2DB430B
:104A40009AB2BDF80E3013409BB2ADF80E30019B08
:104A50001B7883F00103DBB2002B21D0019BDA89A4
:104A6000BDF80C3013409BB2002B19D00198FFF712
:104A7000C3FB034603F00203002B11D0019B9B787C
:104A80005A012D4B134402229A60019BDB899BB291
:104A9000DB439AB2BDF80C3013409BB2ADF80C303A
:104AA000059B01330593059B032B9FDD049B013B75
:104AB0000493BDF80E30002B03D1BDF80C30002B51
:104AC00002D0049B002B86D1BDF80A30002B0ED0FB
:104AD0001A491A4B03F5723310331B6823F0020294
:104AE00001F5723310331A601020FFF71DFBBDF87B
:104AF0000830002B19D01149104B03F572331433D1
:104B00001B6823F0020201F5723314331A600B495B
:104B10000A4B03F5723304331B6823F4F06343F448
:104B2000806201F5723304331A6007B05DF804FB4C
:104B30003404002000091040000B104000400C40DD
:104B400000B587B003468DF807309DF9073013F1A3
:104B50000B0F01D0FFF7DAFD0123059337E0204B5F
:104B60001968059A13469B001344DB0030330B444D
:104B700004330493049B93F82030002B24D0049B2F
:104B8000002283F82020049B5B6A002B1CD0049B2E
:104B90005B6A0393049B00225A62114B1B6893F8D3
:104BA0002230052B08D10E4B1B6893F82030042BC4
:104BB00002D10498FFF7D4FA049B5969049B1A693F
:104BC0009DF90700039B9847059B01330593059BBF
:104BD000032BC4DD0520FFF751FA07B05DF804FB95
:104BE0003404002082B001900F4A019B043319461F
:104BF00002F5723303F5457319600B490A4B03F54F
:104C0000723303F540731B6823F03C42019BD3F8D9
:104C1000F430134343F0004201F5723303F540735F
:104C20001A6002B0704700BF00400C4086B001908F
:104C3000FF238DF81330019B1B78002B24D0019BA0
:104C40009B785A01224B13441B6823F07053059341
:104C5000059B03F440230393039BB3F5802F30D0CF
:104C6000059B002B03DA059B43F080430593019BD2
:104C70009B785A01164B1344059A42F400121A60AD
:104C800000238DF813301CE0019B9B785A01114BD7
:104C900013441B6823F070530593059B03F44023D2
:104CA0000393039BB3F5802F0BD0019B9B785A0194
:104CB000084B1344059A42F400121A6000238DF841
:104CC00013309DF813305BB2184606B0704700BF32
:104CD00000091040000B104082B0019000910E4975
:104CE000019B43F4002201F5723303F588731A60C7
:104CF0000949094B03F5723303F580731B6823F0F0
:104D00003C42009B134343F0044201F5723303F528
:104D100080731A6002B0704700400C4082B001906E
:104D200000910E49019B43F4002201F5723303F513
:104D300044731A600949094B03F5723303F5407354
:104D40001B6823F03C42009B134343F0044201F5EF
:104D5000723303F540731A6002B0704700400C4094
:104D600084B003468DF80730002302939DF8073086
:104D70005BB2002B0ADA194B1A689DF8073003F072
:104D80000F03134493F8D430039309E0134B1A68CC
:104D90009DF8073003F00F03134493F8E4300393B6
:104DA000039B002B0BD00D4B1968039A13469B00F5
:104DB0001344DB0030330B440433029309E09DF8C5
:104DC000073003F00F03002B03D1044B1B6834336F
:104DD0000293029B184604B0704700BF34040020C1
:104DE00000B585B00190019B1B78002B15D0019B6D
:104DF0001B690393019B9B89ADF80A30BDF80A201B
:104E0000039B9A4228BF1A460B4B1B68D3F8F43019
:104E100010461946FFF760FF0AE0019B9B891A467E
:104E2000054B1B68D3F8F43010461946FFF776FFA0
:104E300005B05DF804FB00BF3404002000B585B068
:104E40000190019B34330293029B93F82030042B92
:104E500000F2168101A252F823F000BF714E00004B
:104E6000D94F0000514F00004B5000004B50000044
:104E7000029B00221A61029B00225A70844B00227E
:104E80001A60844B00221A700198FEF7C3FC03904D
:104E9000039BB3F1FF3F0FD1029B01221A700298CE
:104EA000FFF7C4FE029B00221A700298FFF7BEFEB5
:104EB0000198FFF797FE4AE0029B93F82030022BFF
:104EC00004D0029B93F82030012B03D1029B5B6A34
:104ED0006F4A1360029B93F82030022B37D0029B5D
:104EE0001B69002B16D0029B1B69019A1268D2889D
:104EF00092B293422BD2029B1B69029A9289B3FB16
:104F0000F2F102FB01F29B1A002B20D1029B01223D
:104F10005A70BAE00198FFF765FE5F4B00221A60F5
:104F2000029B5B78002B0AD1002000210022002385
:104F3000FEF76CF9029B032283F8202007E0029B16
:104F4000002283F82020029B00221A709DE09CE042
:104F5000029B1B69002B03D00298FFF741FF3AE048
:104F6000002303934A4B1B68002B0BD0484B1B6854
:104F7000029A526900201146002298470390444B40
:104F800000221A60039B002B13D0029B01221A708F
:104F90000298FFF74BFE029B00221A700298FFF75F
:104FA00045FE0198FFF71EFE029B002283F8202099
:104FB00011E00198FFF716FE029B002283F82020E3
:104FC0000020002100220023FEF720F9029B03228B
:104FD00083F8202059E058E0029B1B69002B03D086
:104FE0000298FFF7FDFE2FE0029B5B78012B11D1A9
:104FF000029B5B69284A1360029B002283F82020F1
:105000000020002100220023FEF700F9029B02226B
:105010005A7019E0029B5B78002B03D1029B5B69FD
:105020001D4A1360029B002283F8202000200021EB
:1050300000220023FEF71AF8164B01221A70029B79
:10504000042283F8202020E01FE0124B1B78002B65
:1050500002D00198FFF7C6FD0D4B1B68002B07D04F
:105060000B4B1B680C4A126800201146002298471F
:10507000029B002283F82020029B00221A7004E089
:105080000648BB21FFF754F900BF05B05DF804FBEB
:10509000300B0020340B0020380B002050E10000C2
:1050A00000B585B003468DF807309DF807301846E7
:1050B000FFF756FE0390039B93F82030012B04D09A
:1050C000039B93F82030022B16D1039B002283F818
:1050D0002020039B5B6A002B0DD0039B5B6A02932D
:1050E000039B00225A62039B5969039B1A69029B26
:1050F0000020984705E004E0034840F26F11FFF7F5
:1051000017F905B05DF804FB50E1000072B6074BDB
:105110001B68B3F1FF3F04D0044B1B680133034A03
:105120001360024B1B681846704700BFF00900204F
:1051300082B00B4B1B68002B0DD0094B1B68013B49
:10514000074A1360064B1B680193019B002B00D19B
:1051500062B6019B00E00023184602B0704700BF12
:10516000F009002082B003468DF807300A499DF807
:1051700007309B0143F0200201F5703310331A60B1
:1051800000BF054B03F5703310331B6803F0200399
:10519000002BF6D102B0704700400C4082B0094BA2
:1051A00003F5703314331B680193064B03F570331A
:1051B00018331B68019A13400193019B184602B0F3
:1051C000704700BF00400C4084B001900F4B03F5C6
:1051D0007033183300221A600C4B03F5703314330C
:1051E0004FF0FF321A600A4B0393019B1B6B1B6944
:1051F000002B03D0039B43F008030393034B03F5F9
:1052000070331833039A1A6004B0704700400C40A2
:1052100000380C8082B001901049104B03F57233B6
:1052200004331B6823F4F06343F4807201F5723396
:1052300004331A600949094B03F5723303F54073CF
:105240001B6823F03C42019B134343F0044201F5E9
:10525000723303F540731A6002B0704700400C408F
:1052600082B0094B03F5723318331B680193064B68
:1052700003F572331C331B68019A13400193019BA1
:105280009BB2184602B0704700400C4082B0094BF8
:1052900003F5723318331B680193064B03F5723321
:1052A0001C331B68019A13400193019B1B0C184689
:1052B00002B0704700400C4084B00190094B03F5E8
:1052C000723310331B680393019B9B785A01064B82
:1052D00013449B680293029A039B1340184604B040
:1052E000704700BF00400C400009104084B001909E
:1052F000019B9B785A01084B13449B680393074B0F
:1053000003F5723314331B68039A13400393039B12
:10531000184604B0704700BF000B104000400C401E
:1053200082B00190019B002283F83420154B03F5D5
:10533000723303F544734FF0C0421A60019B1A1D8B
:10534000019B1A600F4A019B1B68194602F57233D4
:1053500003F5457319600B490A4B03F5723303F5E6
:1053600040731B6823F03C42019BD3F8F430134395
:1053700043F0044201F5723303F540731A6002B042
:10538000704700BF00400C4084B003468DF80730E2
:10539000002302939DF807305BB2002B0ADA194B09
:1053A0001A689DF8073003F00F03134493F8D430C4
:1053B000039309E0134B1A689DF8073003F00F03BD
:1053C000134493F8E4300393039B002B0BD00D4B55
:1053D0001968039A13469B001344DB0030330B44D7
:1053E0000433029309E09DF8073003F00F03002B0C
:1053F00003D1044B1B6834330293029B184604B05C
:10540000704700BF3404002000B583B000238DF83E
:105410000330FFF77BFE494B9B68002B29D0474B9D
:105420001B6803F40033002B23D0444B9B6803F02C
:105430000103002B0BD0414B01221A613F4B5B68EB
:1054400003F00103002B02D001238DF803303B4B06
:105450009B6803F00203002B0BD0384B02221A6129
:10546000364B5B6803F00103002B02D101238DF85A
:105470000330FFF793FE0190019B002B02D1FFF751
:1054800057FE57E0019B03F40003002B05D000F00A
:10549000E1F9019B23F400030193019B002B05DA42
:1054A00000F0BEFA019B23F000430193019B03F43B
:1054B0000063002B05D000F081FA019B23F4006308
:1054C0000193019B03F00803002B05D000F0DAF9EB
:1054D000019B23F008030193019B03F40053002B6D
:1054E00005D000F02DF8019B23F400530193019B9C
:1054F00003F48053002B05D000F0E8F9019B23F45E
:1055000080530193019B03F48023002B05D000F00E
:105510002DF8019B23F480230193019B03F40023C6
:10552000002B05D000F0A2F8019B23F40023019387
:10553000FFF7FEFD03B05DF804FB00BF00400C4028
:1055400008B5094B1B68D3F8F4301846FFF762FE24
:10555000054B1B68002283F85420034B1B68184638
:10556000FFF732FE08BD00BF3404002000B585B04F
:10557000FFF776FE0346ADF80830002303930123BE
:10558000ADF80A3068E0BDF80820BDF80A301340D5
:105590009BB2002B58D0039BDBB263F07F03DBB2DE
:1055A000DBB21846FFF7F0FE01900198FFF784FE8A
:1055B0000090009B03F00103002B45D0039B5A0190
:1055C000284B134401229A60039B002B24D1019B9A
:1055D0001B69019A928993420ED9019B1B69019A1A
:1055E00092899A1A019B1A61019B5B69019A9289BF
:1055F0001A44019B5A6109E0019B5A69019B1B698E
:105600001A44019B5A61019B00221A61164B1B68C8
:105610001846FFF713FC17E0019B1A69039B590119
:10562000104B0B441B69C3F31203D21A019B5A613E
:10563000019B1A69019B5B69D21A019B1A61019B4C
:10564000DB781846FFF72CFD039B01330393BDF86D
:105650000A305B00ADF80A30039B062B93DD05B0E2
:105660005DF804FB000910403404002000B585B04B
:10567000FFF70CFE0346ADF8083000230393012327
:10568000ADF80A302EE0BDF80820BDF80A3013400E
:105690009BB2002B1ED0039BDBB21846FFF774FEB3
:1056A00001900198FFF722FE0090009B03F0010398
:1056B000002B08D0039B5A010D4B134401229A6022
:1056C000019800F017F8009B03F00803002B01D0AD
:1056D00000F05CF8039B01330393BDF80A305B00D4
:1056E000ADF80A30039B062BCDDD05B05DF804FB59
:1056F000000B104000B583B00190019B9B78002BFC
:1057000024D1019B1B69019A928993420ED9019B76
:105710001B69019A92899A1A019B1A61019B5B6924
:10572000019A92891A44019B5A6109E0019B5A69C6
:10573000019B1B691A44019B5A61019B00221A615B
:10574000104B1B681846FFF779FB18E0019B9A691C
:10575000019B9B7859010C4B0B441B69C3F312034B
:10576000D21A019B5A61019B1A69019B5B69D21A8B
:10577000019B1A61019BDB781846FFF791FC03B08F
:105780005DF804FB34040020000B104000B583B02A
:105790002E4B03F5723303F542731B6803F040038D
:1057A000002B11D0294B03F5723303F542734022CD
:1057B0001A60274B1A68254B03F5723303F54573BE
:1057C0001B68083B136019E0204B03F5723303F5A7
:1057D00044731B6803F0C0435B0F0193019B032BD1
:1057E00001D1022301931A4B1B68194A1168019ACF
:1057F000C2F10202D2000A4404321A601349134B68
:1058000003F5723303F544731B6843F0C04201F59E
:10581000723303F544731A600C4A0D4B1B68043352
:10582000194602F5723303F545731960074B03F50A
:10583000723303F5427308221A60054B1B68184641
:10584000FFF7FCFA03B05DF804FB00BF00400C401A
:105850003404002008B50A4B03F5703314334FF4B9
:1058600000021A60064B5B6803F00103002B03D0B3
:105870000320FDF78BFC02E00020FDF787FC08BD4C
:1058800000400C4008B50E4B03F57033143308226A
:105890001A600C4B1B681B6B1B69002B0ED0094B4D
:1058A0001B681B6B1A69064B03F5723308331968C2
:1058B000054B0B401B0A9BB21846904708BD00BF22
:1058C00000400C403404002000FF3F0000B583B0CE
:1058D0003649364B03F5723304331B6823F4F06208
:1058E00022F0010201F5723304331A600020FFF741
:1058F00039FC0023019309E0019B5A012C4B13440E
:105900004FF0FF329A60019B01330193019B062BFC
:10591000F2DD0023019309E0019B5A01254B13445A
:105920004FF0FF329A60019B01330193019B062BDC
:10593000F2DD1E4B03F572331C334FF001121A6077
:105940001A4B03F57233143309221A60174B03F50F
:105950007233103301221A601449144B03F5723369
:105960001B6823F4FE6201F572331A60124B1B6848
:105970001846FFF7D5FC104B1B681846FFF724FCB0
:105980000D4B1B681B6B1B68002B04D00A4B1B685C
:105990001B6B1B6898470320FDF7F8FB6FF00A00AC
:1059A000FFF7CEF803B05DF804FB00BF00400C40E9
:1059B00000091040000B10403404002000B583B0F3
:1059C000164B03F5703314334FF400621A606FF016
:1059D0000900FFF7B5F8FDF711F90346002B02D1D6
:1059E0000220FDF7D3FBFDF709F903468DF80730D8
:1059F0009DF80730022B0BD09DF80730032B07D002
:105A00009DF80730042B03D09DF80730052B02D1F9
:105A10000620FDF7BBFB03B05DF804FB00400C4023
:105A200008B5074B03F5703314334FF000421A608A
:105A3000044B1B6893F821301846FDF7A7FB08BDFF
:105A400000400C403404002082B003468DF807303B
:105A500007499DF907305B099DF8072002F01F02F6
:105A6000012000FA02F241F8232002B0704700BF83
:105A700000E100E082B003468DF8073007499DF948
:105A800007305B099DF8072002F01F02012000FA91
:105A900002F2603341F8232002B0704700E100E0D9
:105AA00072B6074B1B68B3F1FF3F04D0044B1B6871
:105AB0000133034A1360024B1B681846704700BF4E
:105AC000F009002082B00B4B1B68002B0DD0094B56
:105AD0001B68013B074A1360064B1B680193019B3F
